:020000040000FA
:10000000680400206D02000071020000730200000D
:100010007502000077020000790200000000000075
:100020000000000000000000000000007B02000053
:100030007D020000000000007F02000011060000A9
:1000400083020000830200008302000029040000F4
:10005000830200008302000083020000830200008C
:10006000830200008302000083020000830200007C
:10007000830200008302000083020000830200006C
:10008000830200008302000083020000830200005C
:10009000830200008302000083020000830200004C
:1000A000830200008302000083020000830200003C
:1000B000830200008302000083020000830200002C
:1000C000830200008302000083020000830200001C
:1000D000830200008302000083020000830200000C
:1000E00083020000830200008302000083020000FC
:1000F00083020000830200008302000083020000EC
:1001000083020000830200008302000083020000DB
:1001100083020000830200008302000083020000CB
:1001200083020000830200008302000083020000BB
:1001300083020000830200008302000083020000AB
:1001400000000000000000000000000000000000AF
:10015000830200008302000083020000830200008B
:10016000000000000000000000000000000000008F
:10017000000000000000000000000000000000007F
:10018000000000000000000000000000000000006F
:10019000000000000000000000000000000000005F
:1001A000000000000000000000000000000000004F
:1001B000830200008302000083020000830200002B
:1001C000830200008302000083020000830200001B
:1001D000830200008302000083020000830200000B
:1001E00083020000830200008302000083020000FB
:1001F00083020000830200008302000083020000EB
:10020000830200008302000083020000000000005F
:1002100083020000830200008302000083020000CA
:1002200083020000830200008302000083020000BA
:1002300083020000830200008302000083020000AA
:10024000830200008302000083020000830200009A
:10025000830200008302000083020000830200008A
:1002600083020000830200008302000000F00AB84D
:10027000FEE7FEE7FEE7FEE7FEE7FEE7FEE7FEE756
:10028000FEE7FEE700F002F800F02CF80AA090E884
:10029000000C82448344AAF10107DA4501D100F041
:1002A00021F8AFF2090EBAE80F0013F0010F18BFE2
:1002B000FB1A43F001031847D4040000E4040000D3
:1002C0000023002400250026103A28BF78C1FBD85F
:1002D000520728BF30C148BF0B6070471FB51FBD14
:1002E00010B510BD00F029F81146FFF7F7FF00F038
:1002F000ADF900F047F803B4FFF7F2FF03BC00F0DC
:100300004FF8000072B6704762B67047EFF3108086
:1003100072B6704780F31088704730BF704702484C
:100320000249014A024B704768000020680400201F
:1003300068000020704770477047754600F02CF841
:10034000AE4605006946534620F00700854618B0C2
:1003500020B5FFF7E4FFBDE820404FF000064FF066
:1003600000074FF000084FF0000BAC46ACE8C009A6
:10037000ACE8C009ACE8C009ACE8C00921F007014D
:100380008D46704710B50446AFF300802046BDE8A7
:100390001040FFF7B0BF0000004870470000002089
:1003A00001491820ABBEFEE726000200704700009E
:1003B00081B04EF20810C4F20F00016841F0020152
:1003C00001600068009045F22851C4F200010868FD
:1003D00020F03F00086045F22C51C4F2000108688B
:1003E00000F07F40086045F20041C4F20001086857
:1003F000086045F22041C4F20001086820F03F0087
:10040000086045F21C51C4F20001086840F03F004A
:10041000086045F20851C4F20001086840F03F004E
:10042000086001B07047000047F21440C4F20000B9
:100430000068C00760B1FFE747F21C41C4F2000149
:100440000120086040F26401C2F200010860FFE789
:100450007047000081B04EF20810C4F20F0001682E
:1004600041F0080101600068009047F22451C4F295
:100470000001086840F00F00086047F22851C4F2FC
:100480000001086820F00F00086047F22C51C4F208
:10049000000108684FF6FF729043086047F2004180
:1004A000C4F20001086820F00F00086047F21C51F8
:1004B000C4F20001086840F00F00086047F22041D4
:1004C000C4F20001086820F00F00086047F21051E4
:1004D000C4F200010868086047F20441C4F2000158
:1004E000086820F00F00086047F20841C4F20001DC
:1004F000086820F00F00086047F20C41C4F20001C8
:10050000086820F00F00086047F21C41C4F20001A7
:100510000F20086047F21041C4F20001086840F063
:100520000F0008604EF20041CEF20001086805227B
:1005300062F35F7008604EF20011CEF200010868AD
:1005400040F00800086001B07047000081B00090E2
:1005500040F26001C2F20001002008704EF210016A
:10056000CEF200010860009A013A4EF21403CEF276
:1005700000031A604EF21802CEF2000210604EF62E
:100580002052CEF200021068202363F31F60106037
:100590000720086001B0704781B04EF20810C4F225
:1005A0000F00016841F0200101600068009045F2F1
:1005B0002051C4F2020144F24B30C4F64F400860AF
:1005C00045F22451C4F202011F20086045F2285070
:1005D000C4F202000021016045F22C50C4F2020076
:1005E000016045F20042C4F202021120106045F29F
:1005F0002042C4F20202116045F21051C4F202011D
:10060000086045F21C51C4F20201086001B0704755
:1006100045F2FC31C4F20201086880F0080008606D
:1006200040F26000C2F200000178013101F03F01A8
:100630000170017840F2AA60C0F2000030F81100A9
:1006400045F2FC31C4F200010860704780B584B007
:10065000002003908DF80700FFF754FEFFF79CFF82
:10066000FFF7A6FEFFF7F6FEFFF74EFEFFE70020BE
:100670008DF80B00FFE79DF80B00032812DCFFE765
:100680009DF80B1040F22C70C0F2000050F82100D1
:100690008009FFF75BFFFFE79DF80B0001308DF845
:1006A0000B00E8E7FFF739FEE1E720002300260012
:1006B00029002C002F0031003400360038003A00A9
:1006C0003B003D003E003E003F003F003F003E003B
:1006D0003E003D003B003A00380036003400310057
:1006E0002F002C0029002600230020001D001A00E6
:1006F0001700140011000F000C000A00080006008B
:1007000005000300020002000100010001000200D8
:10071000020003000500060008000A000C000F009C
:100720001100140017001A001D0000008CEE0000DC
:1007300096D4000064BD000016B30000709F000056
:100740000C8E0000847E000072770000727700003B
:100750006A6A0000CE5E00007C590000B84F0000BD
:1007600006470000463F0000BA3B0000BA3B0000CD
:1007700034350000662F0000BE2C0000DC2700008E
:10078000C1110000A41F0000DC1D00009C07000038
:0C0790000000002068040000C00200000F
:040000050000026D88
:00000001FF
